:020000040800F2
:10000000A808002029020008DF2B00082B28000880
:10001000DD2B0008690600087333000800000000AB
:100020000000000000000000000000000B2E00088F
:100030001D07000800000000092E00080D2E000812
:10004000430200084302000843020008430200087C
:10005000430200084302000843020008430200086C
:10006000430200084302000843020008430200085C
:10007000430200084302000843020008430200084C
:100080004302000843020008350500084302000847
:10009000430200084302000843020008430200082C
:1000A000430200084302000843020008430200081C
:1000B000430200084302000843020008430200080C
:1000C00043020008430200084302000843020008FC
:1000D00043020008430200084302000843020008EC
:1000E00043020008430200084302000843020008DC
:1000F000392F0008430200084302000843020008A9
:100100004302000843020008B12E00084302000821
:1001100043020008430200084302000843020008AB
:100120006D0600084302000843020008430200086D
:10013000430200084302000843020008430200088B
:10014000430200084302000843020008430200087B
:10015000430200084302000843020008430200086B
:10016000430200084302000843020008430200085B
:100170004302000843020008430200080000000098
:10018000430200084302000800F002F800F03CF8C7
:100190000AA090E8000C82448344AAF10107DA45E2
:1001A00001D100F031F8AFF2090EBAE80F0013F0F8
:1001B000010F18BFFB1A43F0010318470CC60000DB
:1001C0002CC60000103A24BF78C878C1FAD852076C
:1001D00024BF30C830C144BF04680C6070470000C1
:1001E0000023002400250026103A28BF78C1FBD840
:1001F000520728BF30C148BF0B6070471FB505F0DC
:10020000A6F91FBD10B510BD00F0E2F81146FFF7CA
:10021000F5FF04F029F900F000F903B4FFF7F2FF4D
:1002200003BC00F003F90000094880470948004773
:10023000FEE7FEE7FEE7FEE7FEE7FEE7FEE7FEE796
:10024000FEE7FEE704480549054A064B70470000F3
:10025000A12E000889010008A8020020A80800209B
:10026000A8040020A804002053EA020C00F06980D2
:100270002DE9F04B4FF00006002B1FBFB3FA83F5BA
:1002800003FA05F424FA05F65E4012BF1643B2FAEB
:1002900082F502FA05F4C5F120051EBF22FA05FC1D
:1002A00044EA0C04203556EA044C4FEA144418BFC3
:1002B000641C4FF000084FF00009904271EB030CF2
:1002C00039D3002919BFB1FA81F701FA07F6B0FA5C
:1002D00080F700FA07F6C7F120071EBF20FA07FCD7
:1002E00046EA0C062037B6FBF4FCA7EB0507103FE7
:1002F00007F01F0BCBF120060CFA0BFB2CFA06F6CD
:1003000044BFB3460026202FA4BF5E464FF0000B2B
:100310005BEA060C08BF4FF0010B19EB0B09ABFBB6
:10032000027C48EB0608C01B06FB02CC0BFB03CC8F
:1003300071EB0C01C1E70B46024641464846BDE859
:10034000F08B13B54FF000004FF00001AFF30080C9
:10035000BDE81C4070474FF0000200B513469446BC
:100360009646203922BFA0E80C50A0E80C50B1F10D
:100370002001BFF4F7AF090728BFA0E80C5048BF21
:100380000CC05DF804EB890028BF40F8042B08BFBF
:10039000704748BF20F8022B11F0804F18BF00F8BB
:1003A000012B704770477047704710B500F008F890
:1003B000006810BD10B5044600F002F8046010BDDE
:1003C000004870474802002000487047480200205B
:1003D0007546FFF7F9FFAE4605006946534620F023
:1003E0000700854618B020B5FFF72CFFBDE8204078
:1003F0004FF000064FF000074FF000084FF0000BE1
:1004000021F00701AC46ACE8C009ACE8C009ACE893
:10041000C009ACE8C0098D46704710B50446AFF37B
:1004200000802046BDE81040FFF7F7BE01491820C4
:10043000ABBEFEE72600020070470000164B10B569
:10044000DFED171A1888154980B2B0EE610A03F083
:10045000F3FFFCEEC00A114CB0EE610A10EE900AF8
:10046000A41F04F10801E080988880B203F0E4FF43
:10047000FCEEC00A04F10A01B0EE610A10EE900A27
:100480002081188980B203F0D7FFBCEEC00A10EEBD
:10049000100A608110BD00009C0000202A0000208E
:1004A000F5AD003D10B50146806B026C12F0500FA7
:1004B00005D0026CD20626D500F08BFB10BD016C76
:1004C00041F40071016401688A6812F0405F17D13D
:1004D000027EAAB9CA6A12F4700F02D08A68520565
:1004E0000ED44A6822F020024A60016C21F4807127
:1004F0000164016CC90403D4016C41F00101016481
:1005000000F0B6F910BD806BC26CBDE81040084623
:10051000104710B5806B40210164416C41F004012B
:10052000416400F056FB10BD10B5806B00F050FB2D
:1005300010BD0000014800F04DBB0000B4000020D9
:10054000464910B54A6822F440324A604A68436816
:100550001A434A6001684A6822F480724A6001685E
:100560004A68036942EA03224A6001684A6822F045
:1005700040724A6001684A6883681A434A600168A9
:100580008A6822F400628A6001688A68C3681A4334
:100590008A60816A6FF07062D14201688A6822F0D5
:1005A00070628A6001688A680CD0836A1A438A6024
:1005B00001688A6822F040528A6001688A68C36ACA
:1005C0001A4301E022F040528A6001688A6822F0F2
:1005D00002028A6001688A68037E42EA43028A60F6
:1005E00090F82010002901684A680FD042F4006298
:1005F0004A6001684A6822F460424A6001684A68B9
:10060000174C436A04EB43331A4301E022F40062BF
:100610004A600168CA6A22F47002CA620168CA6A42
:10062000838B104C04EB03531A43CA6201688A6837
:1006300022F400728A6001688A6890F8303042EAD9
:1006400043228A6001688A6822F480628A600168B5
:100650008A68406942EA8020886010BD002301401A
:1006600000E0FFFF0000F0FFFEE70000014800F09F
:1006700017BD0000E801002001681823CAB2103A33
:10068000B2FBF3F2054B6FF30901032A9B5CC365D0
:1006900000D9091D8165084670470000ECC50008B7
:1006A00010B5014600208B698A6A4FF0C07453B1BF
:1006B000B3F5005F15D072B1012A0CD0022A0AD01E
:1006C000032A09D104E01AB1012A06D0022A03D173
:1006D000C96AC90100D5012010BDC96AA142FAD07A
:1006E00010BD002AF7D0012AF2D0022AF3D0032A43
:1006F000F3D010BD30B50468256825F48025256049
:10070000046863608368402B036803D099600068C5
:10071000C26030BD9A600068C16030BD704772B67B
:10072000FEE7704778B50024009490F83C20012A39
:1007300019D0012280F83C200A6807230568092A9D
:1007400013D9EE680A3A02EB420293409E43EE60F0
:100750000B788A680A3B03EB43039A400368DD6821
:100760002A43DA6010E0022078BD2E6902EB4202D3
:1007700093409E432E610B788A6803EB43039A40B3
:1007800003681D692A431A614A681F23072A13D286
:1007900005686E6B521E02EB820293409E436E63AD
:1007A0000B790A885B1E92B203EB83039A400368BD
:1007B0005D6B2A435A6327E005680D2A12D22E6B1F
:1007C000D21F02EB820293409E432E630B790A886C
:1007D000DB1F92B203EB83039A4003681D6B2A432D
:1007E0001A6311E0EE6A0D3A02EB820293409E43D7
:1007F000EE620B790A880D3B92B203EB83039A40B9
:100800000368DD6A2A43DA62164B0568144A9D4282
:1008100006D10D68122D03D1556845F48005556049
:1008200005689D4218D10B68102B01D0112B13D1F4
:10083000536843F400035360096810290CD10A4936
:100840000A4A0968B1FBF2F101EB8101490000E0BD
:10085000491E00910029FBD180F83C40002078BD62
:1008600000230140002001409800002040420F007A
:1008700070B5C64CC64E21462DED068BE0789FED37
:10088000C59BCD69012802D002281CD08EE09FEDC7
:10089000C30A84ED130A9FEDC28B284604F0E6FDDF
:1008A00053EC182B03F0F2FF03F0BEFFE061B042FF
:1008B0007CDB04F0DBFD53EC192B04F0EDFC03F0C2
:1008C000B3FFE06172E0B84841F68B010088B1FBEC
:1008D000F0F000EE100AB8EE400A84ED110A20781C
:1008E000012801D018B108E0F1EE000A01E0F9EEAC
:1008F000000A20EE200A84ED130A94ED140AB5EEE6
:10090000C00AF1EE10FA03D194ED130A84ED140A33
:1009100094ED138A30EE080A10EE100A04F0A6FDDA
:100920009FEDA21B53EC112B04F038FA41EC1A0B8B
:10093000284604F09BFD53EC1A2B04F0ADFC03F0A9
:1009400073FFE061B04208DB04F090FD53EC192B1B
:1009500004F0A2FC03F068FFE06100EE100AB5EEBF
:10096000C00AF1EE10FA08D204F080FD53EC192B06
:1009700003F08CFF03F058FFE061844984ED148A92
:10098000607891ED160A19280AD3B3EE091A0120EE
:10099000C0EE010AC4ED150A6070C4ED160A05E048
:1009A00030EE080A401C607084ED160A606D04F099
:1009B0005DFD9FED801B53EC112B04F0EFF903F06C
:1009C00033FFA064A07801280BD1FFF737FDA08882
:1009D000401C80B2A080B0F57A7F02D30020A070C6
:1009E000A080764DE18800EE101A288880B2B8EE1B
:1009F000400A03F0FBFC84ED080A2189A88800EE78
:100A0000101A80B2B8EE400A03F0F0FC84ED090A37
:100A10006189288900EE101A80B2B8EE400A03F00E
:100A2000E5FC5A4984ED0A0A3031B0EE401A081F3D
:100A3000D4ED090A94ED080A03F06EFC94ED070A60
:100A400003F0BEFDF0EE408A94ED070A03F0B4FC1B
:100A500094ED0B1AB0EE408AD4ED0C1A61EE080A40
:100A600021EE880A41EEA80A01EE680AC4ED0D0ADB
:100A700084ED0E0ADFED52AA9FED52AA0022114624
:100A8000B0EE4A0A05F1600000EEAA0ABCEEC00A08
:100A900010EE103A00F0C8FA94ED0E0A0022102170
:100AA00000EE2AAA05F16000BCEECA0A10EE103A68
:100AB00000F0BAFAE078012802D0022809D01CE040
:100AC0009FED410A84ED050AB0EE080A84ED060A9E
:100AD00013E094ED150A02F02FF984ED0F0AF0EE01
:100AE000400A94ED0E0A02F0D1F884ED060A94ED66
:100AF0000D0A02F075F884ED050AD4ED050A94EDAF
:100B0000061A20EE880A01EE680A60EEA88A41EE15
:100B1000088A84ED030A10EE100AC4ED048A04F07A
:100B2000A5FC41EC1A0B18EE900A04F09FFC41EC76
:100B3000100BB0EE4A1AF0EE6A1A02F0B1FD53EC57
:100B4000192B51EC100B03F0A1FE41EC100BB0EE91
:100B5000491AF0EE691A02F09BFE51EC100B03F0FB
:100B600063FEE06503F046FD1448184A0C30016846
:100B7000098811604168121D098811608068111D83
:100B800000880860BDEC068B70BD000024000020CA
:100B9000DB0FC940EA2E4454FB21194000009D435D
:100BA0003355302AA913B03F8A0000202D431CEB97
:100BB000E2361A3F462BE0663D1903409C000020B8
:100BC00000001B4400000045000000003404014008
:100BD0007047704770B5044600680668456816F0AF
:100BE000020F05F020012AD049B3216CC90603D4B5
:100BF000216C41F400712164816811F0405F17D1CC
:100C0000217EA9B9C16A11F4700F02D0816849052B
:100C10000ED4416821F020014160206C20F48070E6
:100C20002064206CC00403D4206C40F001002064D8
:100C30002046FFF71DFE21686FF01200086016F0D5
:100C4000040F05F0800132D089B3206CC00603D4B4
:100C5000206C40F4005020642068816811F4401F2B
:100C60001ED1816B11F4401F02D08168490517D451
:100C70004168490514D4816811F0405F10D1217E8C
:100C800071B9416821F080014160206C20F48050EE
:100C90002064206CC00503D4206C40F00100206467
:100CA0002046FFF73EFD21686FF00C00086016F04B
:100CB000010F05F040010FD071B120680068C00736
:100CC0000AD0206C40F480302064204600F043F8C5
:100CD00021686FF00100086016F0200F05F08061B8
:100CE0000ED000290CD0606C40F0020060642068D7
:100CF0006FF0200505602046FFF76BFF2068056058
:100D000070BD70B504004FF0000503D0206C0026C4
:100D100010B107E0012070BD204600F01DF86664A8
:100D200084F83C60206CC00610D4206C20F48850FD
:100D300040F0020020642046FFF702FC6664206C4D
:100D400020F0020040F00100206400E0012584F85A
:100D50003C60284670BD704770B586B006461421C9
:100D60006846FFF7F8FA2249306888423ED12148A8
:100D70000025016841F480610160006800F4806032
:100D800005901C481438016841F02001016000689A
:100D9000694600F0200005904FF4E07000900320B9
:100DA000CDE90105144800F0EDFA154C1348206018
:100DB0008005C4E901050014C4E9035080006061A6
:100DC0008000A0618011C4E907052046656200F03B
:100DD00037FA08B1FFF7A3FCB46300220121122007
:100DE000A66300F03BFC122000F02AFC06B070BDA8
:100DF00000220140443802400014024010640240C6
:100E0000E8010020F8B5044600200E46009094F852
:100E10003C10012907D0012184F83C1021688B681F
:100E2000DB0702D011E00220F8BD8B6843F001031C
:100E30008B604049404B0968B1FBF3F101EB410184
:100E400000E0491E00910029FBD121688B68DB0579
:100E500003D58B6823F480738B6021688B68DB0774
:100E60005DD0236C40F20165AB4343F4807323648F
:100E70004968490505D5216C21F4005141F48051A0
:100E80002164216CC90404D5616C21F00601616400
:100E900000E0606484F83C00A16B2948274DC863DA
:100EA000A16B28480864A16B2748C86421686FF0CB
:100EB000220008602068416841F08061416020683C
:100EC000816841F4807181602168134632464C315B
:100ED000A06B00F01FFA68681C49C006206806D0A5
:100EE000884224D1816811F0405F13D01FE088420E
:100EF000F8D0174A904203D1D1F80423D206F1D09A
:100F0000144A904213D1D1F8041301F01F011029A3
:100F1000E8D30CE0816841F08041816007E0206CFB
:100F200040F010002064606C40F00100606400201C
:100F3000F8BD00009800002040420F00002301404F
:100F4000A504000829050008130500080020014039
:100F5000002101400022014070B54379012B1CD0D3
:100F6000012646710223037105682B6802F0100404
:100F700040F6FE72A2409343D1E900210A43A24009
:100F80001A432A6001680A68C023A3409A430A6092
:100F9000067100214171084670BD022070BD70B518
:100FA000040003D02079002510B105E0012070BDB8
:100FB0006571204600F008F80220207125610120AB
:100FC0002071002070BD000010B586B004461421C9
:100FD0006846FFF7C0F91149206888421CD11048C3
:100FE0000021026842F000520260006800F00050E8
:100FF00005900B481038026842F001020260006858
:1010000000F001000590302000900320CDE901019F
:101010006946044800F0B6F906B010BD00740040FF
:10102000403802400000024018B50468009400688F
:10103000104421B1143000900360002018BD083026
:10104000F9E770B54279012A1ED0012242710223CC
:1010500003710468266801F0100302FA03F52E43B9
:1010600026600029016811D00C6804F470153C2436
:101070009C40A54203D14B6843F002034B600271D0
:1010800000214171084670BD022070BD0B68C3F39A
:1010900083030F2BF3D14B6843F00103EEE700000D
:1010A0002DE9F84304464FF00009CDF8009063485D
:1010B0004FF41651A56D0068B0FBF1F72E6894F857
:1010C0005C10082000FA01F131420FD021680A6853
:1010D00052070BD50A6822F004020A6094F85C10EB
:1010E0008840A860606D40F00100606594F85C1075
:1010F0004FF0010808FA01F0304208D02168496930
:10110000090604D5A860606D40F00200606594F89F
:101110005C1004208840304208D0216809688907A3
:1011200004D5A860606D40F00400606594F85C1020
:1011300010208840304218D021680968090714D56A
:10114000A86020680168490304D50068000308D539
:10115000A16C07E00168C90503D4016821F008010A
:101160000160216C09B12046884794F85C1020206A
:101170008840304231D021680968C9062DD5A86061
:1011800094F8350005282068016806D0490347D542
:10119000006800031DD4616C1CE021F016010160A1
:1011A0002068416921F080014161206C08B9A06C80
:1011B00020B12068016821F00801016094F85C10FA
:1011C0003F208840A86084F8358084F83490216DF1
:1011D0001FE0E16B09B120468847606D00282BD0E5
:1011E000606DC00714D0052084F8350020680168C0
:1011F00021F0010101600098401C0090B84203D822
:1012000020680068C007F6D184F8358084F83490EF
:10121000E16C002910D001B02046BDE8F04308473A
:101220000168C905D5D4016821F01001016084F876
:10123000358084F83490CCE7BDE8F883980000202E
:101240002DE9F041044600F09BF906465CB102200E
:1012500084F83500002584F834502068016821F0B6
:10126000010101600DE00120BDE8F08100F088F986
:10127000801B052805D920206065032084F83500EF
:10128000F2E720680068C007F0D1226811682048A2
:101290000140D4E901031843D4E90336334318432A
:1012A00063691843A3691843E3691843236A184321
:1012B0000843616A042903D1D4E90B131943084395
:1012C000106020684069666A20F0070130460E43CE
:1012D000012704280CD1A06A0643E06A40B12046E9
:1012E000FFF7DEF920B14020606584F83570BAE779
:1012F000206846612046FFF7BFF994F85C203F2143
:1013000091408160656584F835700020ACE700008D
:101310003F8010F02DE9F0410446866D90F83400CE
:10132000002501280DD0012084F8340094F8357090
:101330000020012F07D084F8340002252846BDE89C
:10134000F0810220FBE7022784F8357060652046B3
:10135000FFF7D0F994F85C103F208840B060206817
:10136000016841F016010160206C20B1206801681D
:1013700041F0080101602068016841F0010101604D
:10138000DCE700002DE9F84FDFF8BCA100220125C1
:1013900003264FF00F090AF1040BAAF1040E00BF57
:1013A0000B6805FA02F42340A34270D10F7907F0CD
:1013B0000307012F01D0022F16D187684FEA420898
:1013C00006FA08FC27EA0C07D1F80CC00CFA08FC56
:1013D0004CEA070CC0F808C04768A7430C79C4F36F
:1013E000001494403C4344600C79E443A4070AD0C1
:1013F000C4684FEA420C06FA0CF7BC438F6807FA40
:101400000CF72743C7600C7904F00304022C12D1B7
:10141000D40800EB840CDCF820405707FF0E09FAD3
:1014200007F824EA0804D1F8108008FA07F848EA17
:101430000408CCF8208004684FEA420C06FA0CF746
:10144000BC430F7907F0030707FA0CF7274307603F
:101450004C6814F4403F70D03C4C276847F48047F8
:101460002760246822F0030704F480440094384C79
:1014700007EB040CDCF8084897074FEA177809FADD
:1014800008F7BC43334FB84202D1002724E054E0B0
:10149000314FB84201D101271EE0304FB84201D18F
:1014A000022719E02E4FB84201D1032714E02D4F37
:1014B000B84201D104270FE02B4FB84201D10527D4
:1014C0000AE02A4FB84201D1062705E0284FB8426A
:1014D00001D1072700E0082707FA08F72743CCF8CF
:1014E0000878DAF800405746D1F804C09C435FEA18
:1014F000CC2C00D51C433C60DBF800405F46D1F8A3
:1015000004C09C435FEA8C2C00D51C433C60DEF891
:1015100000407746D1F804C09C435FEA8C3C00D57C
:101520001C433C60084F083F3C68D1F804C09C4312
:101530005FEACC3C00D51C433C60521C102AFFF4EF
:101540002FAFBDE8F88F0000083C0140443802404E
:101550000030014000000240000402400008024048
:10156000000C02400010024000140240001802402B
:10157000001C02400AB1816170470904FBE70000CA
:1015800001488068704700008C0000200248816894
:1015900002781144816070478C0000200B4810B520
:1015A000016841F400710160016841F480610160EB
:1015B000016841F480710160032000F06FF80F2092
:1015C00000F006F800F024F8002010BD003C0240B6
:1015D00070B50D4D04464FF47A712878B1FBF0F0E8
:1015E0000A490968B1FBF0F000F0ECFA48B9102C98
:1015F00007D200222146501E00F030F800206C6017
:1016000070BD012070BD00008C00002098000020FB
:101610000A4808B5016841F480410160006800F49F
:10162000804000900548001F016841F08051016032
:10163000006800F08050009008BD0000443802406F
:10164000002809DB00F01F020121914040098000C1
:1016500000F1E020C0F8001170470000F0B40E4B1C
:101660001B680C46C3F30223C3F10705042D00D900
:101670000425191D072901D2002300E0DB1E0126E5
:1016800006FA05F1491E214099409E40761E1640FB
:101690003143F0BC01F086BE0CED00E0064900F0DD
:1016A000070208684FF6FF03184040EA0220034A89
:1016B00010430860704700000CED00E00000FA05E0
:1016C0002DE9F0470E46050065D0DFF81481D8F803
:1016D0000000F7B200F00700B04207D288F80070AF
:1016E000D8F8000000F00700B04254D128683D4C03
:1016F000810712D5400703D5206840F4E0502060F0
:101700002878000703D5206840F4604020602068F6
:10171000A96820F0F000084320602878C0072DD089
:10172000304968680839012812D0022813D00328EC
:1017300011D00968890700292DDA216821F00301F9
:1017400001432160FFF71CFF814641F2883A0EE019
:1017500009688903EFE709688901ECE7FFF710FFE3
:10176000A0EB0901514502D90320BDE8F0872068AC
:10177000696800F00C00B0EB810FEFD1D8F80010D1
:10178000404601F00701B14207D90770006800F038
:101790000700B04201D00120E7E72878400705D5CF
:1017A0002068E96820F4E0500843206028780007AA
:1017B00006D52068296920F4604040EAC100206015
:1017C00000F018F82168084AC1F30311515CC840C1
:1017D0000649086006480068FFF7FAFE0020C4E7E3
:1017E000003C024008380240F4C500089800002080
:1017F00090000020154810B5006810F00C02144845
:1018000013D01449042A0FD0082A0ED10F4C241FDC
:101810002268236802F03F025B0207D52068C0F30C
:101820008810A0FB010106E0084610BD2168C1F345
:101830008811A1FB00010023FEF716FD2168C1F30A
:101840000141491C4900B0FBF1F010BD08380240CD
:101850000024F40040787D012DE9F84F04006ED09B
:101860002078DFF84C93C007A9F104054AD009F1AC
:1018700004000168C1F38101012908D00068C0F3A8
:10188000810002280AD1D9F80000400206D5286854
:10189000800337D560680028E1D033E06068B0F598
:1018A000803F10D0B0F5A02F286810D020F48030F1
:1018B0002860286820F4802028606068A8B1FFF7BD
:1018C0005FFE06460DE0286840F48030F4E740F4FF
:1018D00080202860F7E700BFFFF752FE801B6428D6
:1018E00073D828688003F7D50CE0FFF749FE064659
:1018F00005E000BFFFF744FE801B6428F0D828688D
:101900008003F7D42078DFF8AC8280074FF0000A1C
:101910003ED5A748001D016811F00C0F08D00068E3
:10192000C0F3810002280BD1D9F80000400207D48F
:101930002868800716D5E068012800D112E033E15D
:10194000E068B8B10120C8F80000FFF719FE0646AC
:1019500005E000BFFFF714FE801B0228C0D82868EE
:101960008007F7D52868216920F0F80040EAC10017
:1019700028600DE0C8F800A0FFF702FE064604E06C
:10198000FFF7FEFD801B02281FD828688007F7D4C8
:101990002078000722D5864F87486169703771B17A
:1019A00001210160FFF7ECFD064604E0FFF7E8FDCA
:1019B000801B022809D838688007F7D50EE0C0F8E8
:1019C00000A0FFF7DDFD064605E082E0FFF7D8FD49
:1019D000801B02287DD838688007F7D4207840071C
:1019E00068D5DFF8CCB100270BF13C0BDBF8000029
:1019F000C0000BD4DBF8001041F08051CBF8001090
:101A0000DBF80000012700F0805000906B4E30683A
:101A1000C00510D4306840F480703060FFF7B0FD2E
:101A2000009005E0FFF7ACFD0099401A022850D85D
:101A30003068C005F6D55E4EA0686C3601280FD020
:101A40000528306810D020F001003060306820F0A8
:101A500004003060A068B8B1FFF792FD00900FE07D
:101A6000306840F00100F4E740F004003060F7E730
:101A7000FFF786FD0099411A41F28830814266D80D
:101A800030688007F4D50EE0FFF77AFD009007E09C
:101A9000FFF776FD0099411A41F28830814256D80D
:101AA00030688007F4D42FB1DBF8001021F08051AA
:101AB000CBF80010A069C8B33D49091D0968C1F3FE
:101AC000810102294AD00228504607D0C8F8600098
:101AD00000E03CE0FFF754FD04463BE04746C8F811
:101AE0006000FFF74DFD064605E000BFFFF748FD2B
:101AF000801B02282BD828688001F7D4D4E907017D
:101B00000843A16A2E4A490802EB0141626A41EA90
:101B10008211084394F82C1040EA0161C9F80010C2
:101B200001203866FFF72CFD044606E03EE000BFCA
:101B3000FFF726FD001B022809D828688001F7D589
:101B400034E000BFFFF71CFD001B022802D9032070
:101B5000BDE8F88F28688001F4D427E00128F7D089
:101B6000D9F80000E26900F4800191421CD1226A98
:101B700000F03F01914217D147F6C071626A0140FF
:101B8000B1EB821F10D1A26A4FF0FF3300F4403155
:101B900003EB5202B1EB024F06D194F82C1000F087
:101BA0007060B0EB016F01D00120D1E70020CFE7DA
:101BB0000438024000004742800E47420070004057
:101BC0000000FFFF10B5401EB0F1807F01D301205F
:101BD00010BD4FF0E02460610F21601701F0E2FBBF
:101BE0000020A06107202061002010BD70477047D1
:101BF00010B590F83C20012A22D0012280F83C2028
:101C0000CA688C6822F4407222434C6822F48062D5
:101C100022430C6822F4006222430C6922F48052B1
:101C200022434C6922F400522243C969002322F462
:101C300080420A4301684A6480F83C30002010BDAD
:101C4000022010BD70B590F83C20012A32D001244A
:101C500080F83C40022280F83D2003685A689D6865
:101C600022F070060A6832435A60134B02689A42A7
:101C700014D0B2F1804F11D0104B9A420ED0104BBD
:101C80009A420BD00F4B9A4208D00F4B9A4205D084
:101C90000E4B9A4202D00E4B9A4204D1496825F06D
:101CA00080031943916080F83D40002180F83C108A
:101CB000084670BD022070BD0000014000040040D5
:101CC00000080040000C00400004014000400140BA
:101CD0000018004010B50446022249B104290ED074
:101CE000082913D094F84500012816D0012010BD12
:101CF00094F842000128F9D184F842200FE094F8CA
:101D000043000128F2D184F8432008E094F844000D
:101D10000128EBD184F8442001E084F84520042216
:101D2000206801F080F92068416C41F40041416471
:101D300011492068884214D0B0F1804F11D00F496A
:101D400088420ED00E4988420BD00E49884208D0F6
:101D50000D49884205D00D49884202D00C4988427D
:101D600004D1816801F00701062903D0016841F020
:101D700001010160002010BD00000140000400408E
:101D800000080040000C00400004014000400140F9
:101D90000018004010B5040003D094F83D0010B1C5
:101DA00007E0012010BD002084F83C00204600F030
:101DB0001FF8022084F83D00211D206801F0C2F8C0
:101DC000012084F8460084F83E0084F83F0084F83F
:101DD000400084F8410084F8420084F8430084F80D
:101DE000440084F8450084F83D00002010BD000048
:101DF00008B50068B0F1804F15D0104988421CD159
:101E00000F48016841F0020101600068002200F003
:101E10000200009011462C20FFF720FCBDE808408E
:101E20002C20FFF70DBC0648001F016841F001019E
:101E30000160006800F00100009008BD000401404E
:101E40004438024090F83D10012901D0012070472C
:101E5000022180F83D1000681149884214D0B0F189
:101E6000804F11D00F4988420ED00F4988420BD0C5
:101E70000E49884208D00E49884205D00D49884253
:101E800002D00D49884204D1816801F0070106297A
:101E900003D0016841F0010101600020704700009B
:101EA000000001400004004000080040000C004019
:101EB00000040140004001400018004090F83D102F
:101EC000012901D001207047022180F83D100168EE
:101ED000CA6842F00102CA6000681149884214D001
:101EE000B0F1804F11D00F4988420ED00E49884280
:101EF0000BD00E49884208D00D49884205D00D49C3
:101F0000884202D00C49884204D1816801F007015F
:101F1000062903D0016841F00101016000207047EB
:101F2000000001400004004000080040000C004098
:101F300000040140004001400018004070B5044614
:101F400090F83C000025012817D0012684F83C6059
:101F5000022084F83D002068826822F0770222F493
:101F60007F4282600868502838D00DDC20284FD08E
:101F700005DC90B3102811D14AE0022070BD302852
:101F800046D040280AD13BE060282FD070280DD0E1
:101F9000B0F5805F03D0B0F5005F12D0012584F862
:101FA0003D60002084F83C00284670BDCB68D1E934
:101FB0000121206801F044F82068816841F0770130
:101FC00009E0CB68D1E90121206801F039F82068E7
:101FD000816841F480418160E1E719E0CA6849689D
:101FE000206801F047F95021206806E0CA68496876
:101FF000206801F091F96021206801F02BF8CEE70C
:10200000CA684968206801F035F940212068F4E782
:10201000226801461046F0E770472DE9F041054679
:1020200090F83C0000260C46012810D0012085F8CD
:102030003C0072B1042A1CD0082A2CD00C2A50D0A3
:102040000126002085F83C003046BDE8F0810220E2
:10205000FBE7D4E90012E368286801F01DF928685D
:10206000816921F00C01816128688169A2681143AE
:102070000FE0D4E90012E368286801F05FF92868EE
:10208000816921F44061816128688169A26841EA1F
:1020900002218161D5E72868D4E9002C277B016AF9
:1020A00021F480710162C169036A21F0030141EAF0
:1020B0000C0121F0F00C39074FF420674CEA116154
:1020C00023F4206307EA02221A43C16102622868EE
:1020D000C16921F00C01C1612868C169A26811437E
:1020E00028E02868D4E90027E168036A23F48053D4
:1020F0000362D0F81CC0036A2CF4407C4CEA07272A
:102100004FF6FF7C27F470470CEA013139434FF456
:10211000204723F4204307EA02321A43C1610262D6
:102120002868C16921F44061C1612868C169A26859
:1021300041EA0221C16184E710B5040003D094F89C
:102140003D0010B107E0012010BD002084F83C00E4
:10215000204600F01FF8022084F83D00211D206871
:1021600000F0F0FE012084F8460084F83E0084F878
:102170003F0084F8400084F8410084F8420084F86D
:10218000430084F8440084F8450084F83D000020B2
:1021900010BD000010B586B0044614216846FEF755
:1021A000DAF817492068884227D1164800210268CA
:1021B00042F008020260006800F008000590114833
:1021C0001038026842F080020260006800F080006F
:1021D00005904FF4E05000900220CDE90101CDE9D7
:1021E000031069460848FFF7CDF80022022132208B
:1021F000FFF734FA3220FFF723FA06B010BD0000D3
:10220000000C004040380240001C024030B504463B
:10221000002551B104290DD0082910D094F84100AF
:1022200094F84520012811D10EE094F83E0094F86E
:102230004220F7E794F83F0094F84320F2E794F83F
:10224000400094F84420EDE7012A01D0012030BD80
:10225000022059B1042912D0082919D084F841006C
:1022600084F845000C2944D0012540E084F83E0064
:1022700084F842002068C26842F0020210E084F84C
:102280003F0084F843002068C26842F0040207E07F
:1022900084F8400084F844002068C26842F00802D4
:1022A000C2600122206800F0B1FE14492068884213
:1022B00014D0B0F1804F11D0114988420ED011498D
:1022C00088420BD01049884208D01049884205D076
:1022D0000F49884202D00F49884204D1816801F039
:1022E0000701062903D0016841F001010160284679
:1022F00030BD2068C26842F01002D1E70000014002
:102300000004004000080040000C004000040140B0
:10231000004001400018004070B5044600680169A3
:102320004FF00005C943890715D4C168C94389071F
:1023300011D4E91E0161012020772068806980079F
:10234000204602D0FFF768FE04E000F018F92046AE
:1023500000F0D8F9257720680169C943490717D4E7
:10236000C168C943490713D46FF004010161022019
:1023700020772068806910F4407F204602D0FFF764
:102380004BFE04E000F0FBF8204600F0BBF9257797
:1023900020680169C943090716D4C168C943090700
:1023A00012D46FF008010161042020772068C06911
:1023B0008007204602D0FFF72FFE04E000F0DFF890
:1023C000204600F09FF9257720680169C943C906B6
:1023D00017D4C168C943C90613D46FF01001016155
:1023E000082020772068C06910F4407F204602D082
:1023F000FFF712FE04E000F0C2F8204600F082F978
:10240000257720680169C943C90708D1C168C94354
:10241000C90704D1891E0161204600F0D9F920685E
:102420000169C943090609D4C168C943090605D42D
:102430006FF0800101612046FFF7D8FB2068016939
:10244000C943490609D4C168C943490605D46FF098
:1024500040010161204600F0E7F920680169C943A5
:1024600089060BD4C168C943890607D46FF02001DF
:1024700001612046BDE87040FFF7B9BB70BD0000A8
:1024800070B586B0044614216846FDF764FF2168E4
:10249000002421480225B1F1804F2BD01F4A9142E0
:1024A00026D1016841F480710160016801F48071F6
:1024B0000591016841F0800101600068032600F089
:1024C00080000590E4200090CDE90154CDE9034659
:1024D00069461348FEF756FF4FF460400090CDE97F
:1024E0000154CDE903460F48694600BFFEF74AFF95
:1024F00006B070BD016841F00101016000686946E5
:1025000000F00100059008200090CDE90154012061
:10251000CDE903400448E9E73038024000040140B7
:1025200000200240001C02400000024070B504463A
:1025300090F83C00002501280FD0012084F83C00D1
:102540006AB1042A0FD0082A11D00C2A13D0012511
:10255000002084F83C00284670BD022070BD206831
:1025600000F080FDF4E7206800F0ACFDF0E72068A3
:1025700000F0DEFDECE7206800F00EFEE8E77047B3
:1025800010B5040003D094F83D0010B107E001201D
:1025900010BD002084F83C00204600F01EF8022008
:1025A00084F83D00211D206800F0CCFC012084F857
:1025B000460084F83E0084F83F0084F8400084F828
:1025C000410084F8420084F8430084F8440084F811
:1025D000450084F83D00002010BD704770B50446EA
:1025E00090F83C0000260D4601280FD0012084F809
:1025F0003C006AB1042A1DD0082A2FD00C2A3FD0F3
:102600000126002084F83C00304670BD022070BDD9
:10261000206800F027FD2068816941F00801816190
:102620002068816921F004018161206881692A693B
:10263000114311E0206800F045FD2068816941F4F4
:10264000006181612068816921F480618161206875
:1026500081692A6941EA02218161D2E7206800F09C
:1026600067FD2068C16941F00801C1612068C16946
:1026700021F00401C1612068C1692A69114311E098
:10268000206800F089FD2068C16941F40061C161E2
:102690002068C16921F48061C1612068C1692A692B
:1026A00041EA0221C161ACE710B5040003D094F8FF
:1026B0003D0010B107E0012010BD002084F83C006F
:1026C000204600F01EF8022084F83D00211D2068FD
:1026D00000F038FC012084F8460084F83E0084F8BD
:1026E0003F0084F8400084F8410084F8420084F8F8
:1026F000430084F8440084F8450084F83D0000203D
:1027000010BD70477047000010B50446022249B161
:1027100004290ED0082913D094F84100012816D0BE
:10272000012010BD94F83E000128F9D184F83E2024
:102730000FE094F83F000128F2D184F83F2008E030
:1027400094F840000128EBD184F8402001E084F89F
:1027500041200122206800F059FC16492068164AE1
:10276000884201D0904203D1436C43F40043436458
:102770002068884213D0B0F1804F10D00F498842B2
:102780000DD00F4988420AD00E49884207D09042A6
:1027900005D00D49884202D00C49884204D1816895
:1027A00001F00701062903D0016841F00101016031
:1027B000002010BD00000140000401400004004062
:1027C00000080040000C004000400140001800409C
:1027D000704770B5044690F83C00012812D00125DE
:1027E00084F83C50022084F83D00204600F0FCFCB8
:1027F00001004FF0000007D084F83D5084F83C0001
:10280000012070BD022070BD2168CA6822F040021C
:10281000CA602168CA6822F48042CA6084F83D50C8
:1028200084F83C00002070BD7047FEE77FB50024AF
:1028300021480094019402941E49039401600125EB
:102840004FF480310561C0E90114047680F820401E
:102850000903C1620326C6614FF0A061C4608162B2
:1028600080F830504561FEF74CFA08B172B6FEE7C9
:102870000420CDE90005694602940F48FDF752FF98
:1028800008B172B6FEE7052000900220019069466B
:102890000948FDF747FF08B172B6FEE70620CDE90B
:1028A000000669460448FDF73DFF002801D072B6D6
:1028B000FEE77FBD00220140B4000020F0B587B0E4
:1028C00014216846FDF747FD31480024016841F0B6
:1028D00001010160016801F001010591016841F009
:1028E00010010160016801F010010591016841F4D7
:1028F00080710160016801F480710591016841F007
:1029000004010160016801F004010591016841F0D2
:1029100080010160016801F080010591016841F0CA
:1029200020010160016801F020010591016841F07A
:10293000400101600068174F00F040004FF430750F
:102940000590002229463846FEF714FE0126009520
:10295000CDE90164694638460394FEF713FD700320
:1029600002258DE8310069460B48FEF70BFD0C206F
:102970008DE8310069460948FEF704FD0096694676
:102980000748CDE90145FEF7FDFC07B0F0BD0000AA
:102990003038024000100240000802400018024097
:1029A0000000024010B58EB0142107A8FDF7D3FC3B
:1029B00000240C941C2168460D94FDF7CCFC1F48A4
:1029C0004FF08041016009214160202181604FF476
:1029D0004871C0E903148461FFF7DCF908B172B6ED
:1029E000FEE71648FFF760FE08B172B6FEE7062064
:1029F00007901020089007A91048FFF7EAFE08B1D9
:102A000072B6FEE70C940CA90C480D94FFF71AF966
:102A100008B172B6FEE77020CDE9000402940C22E2
:102A2000694606480494FFF7D9FD08B172B6FEE77F
:102A30000248FFF725FD0EB010BD00001001002078
:102A400010B586B0002420480594049400940194A5
:102A500002941C49039401604F21C0E9011444F61B
:102A60001F61C0E903148461FFF766FB08B172B609
:102A7000FEE7049404A914480594FFF7E3F808B1AD
:102A800072B6FEE70120CDE90040029400226946BB
:102A90000D480394FFF7C1FA08B172B6FEE70422AD
:102AA00069460948FFF7B9FA08B172B6FEE708228D
:102AB00069460548FFF7B1FA002801D072B6FEE773
:102AC00006B010BD000C00405801002010B596B0B3
:102AD00000240F9410941194129413941C216846AE
:102AE0001494FDF738FC202107A8FDF734FC3A4880
:102AF0003849016009214160202181604FF448710B
:102B0000C0E9031444618461FFF744F908B172B667
:102B1000FEE74FF480500F900FA92F48FFF70EFAF1
:102B200008B172B6FEE72C48FFF7BEFD08B172B6D9
:102B3000FEE72948FFF724FD08B172B6FEE77020D2
:102B400013908020149013A92348FFF77BF808B155
:102B500072B6FEE76020CDE9000402940394049469
:102B60000594002269461C480694FFF737FD08B11A
:102B700072B6FEE7042269461748FFF72FFD08B139
:102B800072B6FEE7082269461348FFF727FD08B131
:102B900072B6FEE7102000900C2269460E48FFF73F
:102BA000C5FC08B172B6FEE7079464200894CDE92D
:102BB00009404FF40050CDE90B4007A906480E9498
:102BC000FFF716F808B172B6FEE70348FFF758FCA6
:102BD00016B010BD00040140A0010020FEE7FEE792
:102BE00010B5244C2DED048BB1EE408A18EE100A7E
:102BF00084ED068A02F03AFC9FED1F1B53EC112B6B
:102C000002F0CCF894ED080A41EC190B38EE400ABA
:102C100010EE100A02F02AFC9FED191B53EC112B49
:102C200002F0BCF853EC192B01F030FE41EC190B0B
:102C3000E06902F01BFC53EC192B01F027FE01F0B8
:102C4000F3FD1149E06184ED088A884203DBB2EEAE
:102C5000080A84ED070AE06910F17B5F04D800EEF2
:102C6000100ABDEC048B10BDBAEE080A84ED070A09
:102C7000F7E7000000000020FCA9F1D24D62603FA0
:102C8000666666666666E63F0000404110B5244C05
:102C90002DED048B30EEC08A84ED038A18EE100A05
:102CA00002F0E4FB9FED1F1B53EC112B02F076F8B2
:102CB00094ED050A41EC190B38EE400A10EE100AAB
:102CC00002F0D4FB9FED191B53EC112B02F066F8B8
:102CD00053EC192B01F0DAFD41EC190B206902F0DD
:102CE000C5FB53EC192B01F0D1FD01F09DFD1149FD
:102CF000206184ED058A884203DBB2EE080A84ED88
:102D0000040A206910F17B5F04D800EE100ABDECC4
:102D1000048B10BDBAEE080A84ED040AF7E7000040
:102D200000000020FCA9F1D24D62403F9A99999988
:102D30009999B93F0000404110B510EE100A2DEDF1
:102D4000048B02F093FB9FED271B53EC112B02F039
:102D5000CBF901F069FD08EE100A244C18EE100AB8
:102D600084ED008A02F082FB9FED211B53EC112BB6
:102D700002F014F894ED020A41EC190B38EE400A07
:102D800010EE100A02F072FB9FED1B1B53EC112B8F
:102D900002F004F853EC192B01F078FD41EC190B0B
:102DA000606802F063FB53EC192B01F06FFD01F03A
:102DB0003BFD1349606084ED028A884203DBB1EE7B
:102DC000040A84ED010A0F496068884204D800EEC5
:102DD000100ABDEC048B10BDB9EE040A84ED010AA3
:102DE000F7E70000768DF1BC5F1B8E4000000020ED
:102DF000FCA9F1D24D62503F9A9999999999C93F8E
:102E00000000A0400000A0C070477047FEF7BEBBA6
:102E100070B592B030216846FDF79DFA14210CA8D8
:102E2000FDF799FA1C480025016841F080510160C6
:102E3000006800F0805011901848016841F480410A
:102E400001600068022400F480401190012000908D
:102E5000000401908001CDE906400F26089660200D
:102E6000CDE9090404200B906846FEF7F5FC08B193
:102E700072B6FEE74FF48050CDE90E50CDE90C64F8
:102E800002210CA81095FEF71BFC002801D072B699
:102E9000FEE712B070BD00004038024000700040F4
:102EA0000248016841F470010160704788ED00E05C
:102EB00070B51C4801681C4D8C071C494FF000027E
:102EC0004FF0010313D5046824F0020404604C7829
:102ED0000CB10A7002E00B704A702A70114C4E88D7
:102EE0002434246816B18C80A61BCE804C800468E4
:102EF00064070AD5046824F0040404600C780CB15B
:102F00004A7002E04B700A702B700168090708D5FF
:102F1000016821F00801016006489FED050A80ED77
:102F2000000A70BD100C0040240000208400002026
:102F3000DB0FC93F400000200148FFF7EDB900005A
:102F4000A0010020F0B50268254C264D264E274FE3
:102F5000274B4FF0804CA04209D0604507D0A842D3
:102F600005D0B04203D0B84201D0984204D122F03B
:102F7000700E4A6842EA0E02A0421BD0604519D08A
:102F8000A84217D0B04215D0B84213D0984211D001
:102F9000184DA8420ED0184DA8420BD0174DA8428C
:102FA00008D0174DA84205D0164DA84202D0164DA4
:102FB000A84203D122F44075CA682A434D6922F021
:102FC00080022A4302608A68C2620A688262A04262
:102FD00001D0984201D10969016301214161F0BD2D
:102FE000000001400004004000080040000C0040C8
:102FF00000040140004001400044014000480140FD
:1030000000180040001C00400020004010B501F0F6
:103010001F030121046A99408C430462016A9A40AB
:103020001143016210BD10B501F01F030421046AB1
:1030300099408C430462016A9A401143016210BDB9
:1030400010B5846842EA032224F47F440A432243F1
:10305000826010BD826822F070020A4342F00701CC
:1030600081607047F0B5026A22F001020262036AD1
:1030700042688469124E24F073050C682C4323F0D7
:1030800002058B682B430D4DA84201D0B04205D1FB
:1030900023F00807CB683B4323F00403A84201D088
:1030A000B04205D14D6922F4407215438A692A4322
:1030B00042608461496841630362F0BD00000140E1
:1030C00000040140F0B5026A22F010020262026AB6
:1030D000436884690D6824F4E64444EA05248D6855
:1030E00022F0200242EA05120F4D104EA84201D0F4
:1030F000B04206D1CF6822F0800242EA071222F0E5
:103100004002A84201D0B04207D14D6923F4406388
:1031100043EA85038D6943EA850343608461496816
:1031200081630262F0BD0000000001400004014024
:10313000F0B5026A22F480720262026A4368C469CE
:1031400022F4007224F073050C68124E2C438D6833
:1031500042EA05220E4DA84201D0B04206D1CF6806
:1031600022F4006242EA072222F48062A84201D0DF
:10317000B04207D14D6923F4405343EA05138D69EA
:1031800043EA05134360C4614968C1630262F0BD4C
:10319000000001400004014030B5026A22F4805270
:1031A0000262046A4268C3690D6823F4E64343EA95
:1031B00005238D6824F4005444EA0534084DA842E0
:1031C00002D0084DA84204D14D6922F4804242EA5F
:1031D00085124260C36149680164046230BD000029
:1031E000000001400004014070B5036800249A68A3
:1031F00022F070054A682A4322F007050A682A432C
:103200009A604A6812F00F0F31D11211082A2ED29B
:10321000DFE802F02E2E2E2E0B2127040B69D1E9B8
:1032200002210068FFF70CFF22E00A68052A10D08F
:103230000268136A156A25F001051562026895692E
:10324000096925F0F00545EA011191610068036202
:103250000EE0012070BD0A698968006800F00AF874
:1032600006E00A698968006800F056F800E0012469
:10327000204670BD10B5036A046A24F0010404629C
:10328000846924F0F00444EA021423F00A020A4399
:103290008461026210BD000070B5046A24F001046C
:1032A00004628469056A154EB04214D0B0F1804FB3
:1032B00011D0134EB0420ED0124EB0420BD0124E6F
:1032C000B04208D0114EB04205D0114EB04202D0EB
:1032D000104EB04203D124F00304144301E044F043
:1032E00001041A0724F0F00444EA126225F00A03EC
:1032F00001F00A0119438261016270BD00000140C2
:103300000004004000080040000C004000040140A0
:10331000004001400018004010B5036A23F010037C
:1033200003628369046A23F4704343EA023224F09F
:10333000A00343EA01118261016210BD30B5046A45
:1033400024F0100404628469056A24F4407444EA99
:10335000022222F470444FF6FF7202EA0332224343
:10336000A02425F0A00304EA01111943826101623F
:1033700030BDFEE703B401984100009850EAC12037
:1033800018BF04204A0D18BF40F0010040F2FF7240
:10339000B2EB515F08BF40F00200012808BF0520D2
:1033A00002B070470907090E002804DB00F1E02095
:1033B00080F80014704700F00F0000F1E02080F862
:1033C000141D70470000000070B59B482DED020BE6
:1033D0002DED068B079D25F00044A04218DC974890
:1033E000844202DC0AD1069840B19DED060BBDEC8B
:1033F000068B02B0BDE8704000F05ABF002DCCBF74
:103400009FED8F0B9FED900BBDEC068B02B070BD56
:103410008F48A04215DD8F48A042D8BF4FF0FF343F
:1034200058DD9DED060B51EC100BFFF7A3FF0428B0
:1034300008BF00F061FF9DED060BBDEC068B02B0EE
:1034400070BD9DED060B51EC100B00F0E9FFCDE9CE
:10345000060181489FED828BA0423CDD8248A0425C
:103460001FDD00249FED82AB9DED060B53EC1A2B64
:1034700051EC100B01F00AFA9DED060B41EC190B13
:1034800053EC1A2B51EC100B01F088FC53EC182B69
:1034900001F002FF53EC192B01F0A0FACDE906016F
:1034A00049E09DED060B012453EC182B51EC100B59
:1034B00001F0ECF99DED060B41EC190B53EC182BC8
:1034C00051EC100B01F0E8FE53EC192B01F086FAD9
:1034D000CDE906012FE06848A0421FDD02249FEDE0
:1034E000689B9DED060B53EC192B51EC100B01F072
:1034F00055FC53EC182B01F0C9F99DED060B41EC7E
:10350000180B53EC192B51EC100B01F0C5FE53ECCA
:10351000182B01F063FACDE906010CE09DED060BD6
:10352000032453EC102B9FED580B51EC100B01F0C2
:1035300055FACDE906019DED060B53EC102B51EC2D
:10354000100B01F02BFC41EC180B53EC182B01F085
:1035500025FC41EC190B4E480621B0EE490AF0EE6D
:10356000690A784400F090FD53EC182B51EC100BD5
:1035700001F014FC41EC180B4648B0EE490AF0EE9D
:10358000690A0521784400F07FFD53EC192B51ECBA
:10359000100B01F003FC41EC100B51EC180B53EC39
:1035A000102B002C0EDA01F071F99DED061B53EC87
:1035B000112B01F0F3FB9DED061B53EC112B01F0D9
:1035C00093FD35E001F062F99DED061B53EC112BE4
:1035D00001F0E4FB41EC100B2F48784400EBC400F1
:1035E00090ED001B51EC100B53EC112B01F054FE2D
:1035F0009DED061B53EC112B01F04EFE41EC100B20
:103600002648784400EBC40090ED001B51EC100BF1
:1036100053EC112B01F068FD41EC100B002DA2BF03
:10362000BDEC068B02B070BD51EC100B01F0F0F850
:1036300041EC100B01E70000000010440000F07F97
:10364000182D4454FB21F93F182D4454FB21F9BF98
:103650000000DC3F0000203E0000F33F00000000BF
:10366000000000000000F03F0000E63F0000000006
:103670000000000000000040008003400000000047
:10368000000000000000F83F000000000000F0BF54
:103690000A910000C09000004A90000002900000D3
:1036A00070B56B4E2DED040B2DED028B82B0DDF865
:1036B0001CC0DDE905235C422CF000411C4341EABB
:1036C000D474049D22F00040B44205D86C422C43CF
:1036D00040EAD474B4420BD99DED061B9DED040B5A
:1036E00002B0BDEC028B04B0BDE8704000F0EABD52
:1036F000ACF14054A4F17F641C430BD0022404EAD3
:10370000AC7444EAD27405439FED538B9FED542B68
:1037100007D015E09DED040B51EC100B00F044FEBA
:1037200042E0002C11BF012C9DED040B02B0BDEC5A
:10373000028B04BF04B070BD022C38D0032C3BD0E8
:103740000B439FED491B9FED4A0B0AD0B14218D1A4
:10375000B04209D121F0804120F0804007910590CE
:103760000FE0002A15DA10E0434B7B44002C08BF21
:1037700093ED000B0DD0012C10D0022C17D0032C90
:103780001AD0B0421DD1002A03DAB0EE410AF0EEA1
:10379000610A02B0BDEC028B04B070BD93ED000B6A
:1037A00051EC100B01F034F841EC100BF1E7B0EEE6
:1037B000480AF0EE680AECE7B0EE420AF0EE620A60
:1037C000E7E7401A00153C28C8BF8DED000B19DC57
:1037D000BCF1000FBEBF10F13C0F9FED290B8DED2A
:1037E000000B0FDB9DED060B53EC102B9DED040B36
:1037F00051EC100B01F0F2F800F012FE00F0D4FDD5
:10380000CDE90001002C08BF9DED000BC1D0012CBB
:1038100010D0022C9FED1C0B53EC102B9DED000BD8
:1038200051EC100B0DD001F037FD53EC182B01F0CB
:1038300033FDB9E7019880F0004001909DED000B49
:10384000A7E701F029FD53EC182B01F04DFCABE785
:103850000000F07F00000000182D4454FB210940B7
:10386000182D4454FB2109C0182D4454FB21F9BFE5
:10387000182D4454FB21F93F628F00000000000026
:103880000000000000000000075C143326A6A13CE5
:1038900010B52DED040B86B09DED060B10EE100A51
:1038A00010EE901A8DED000B002818BF0120084380
:1038B00020F00040C0F17F6000F1E040C00F21D156
:1038C0009DED080B10EE101A10EE900A8DED000B16
:1038D000002918BF0121084320F00040C0F17F609B
:1038E00000F1E040C00F0DD129490798B1EB400F1E
:1038F00004BF0698002842D00998400004BF0898E9
:1039000000283CD09DED080B53EC102B9DED060BD1
:1039100051EC100B01F03AFBCDE902019DED020BD9
:1039200040F2FF7110EE900A8DED000B31EA10505D
:1039300021D00798039900F0004001F0004188422F
:1039400019D09DED080B8DED040B9DED020B8DED57
:10395000000B10EE900A059961F31E0005909DED95
:10396000041B9DED020B51EC110B53EC102B01F0DD
:10397000BBFBCDE902019DED020B0AB010BD012099
:10398000FCF718FD0AB0BDE8104000F0A5BC00002F
:103990000000E0FF0000000010B52F499FED2C1B38
:1039A0002DED020B84B0059820F000408842DCBF6A
:1039B00000209DED040B32DD2849884209D104988E
:1039C00040B94FF00100FCF7F5FC00F085FC06B0B3
:1039D00010BD05DB9DED040B00F06AFC06B010BDC8
:1039E00068469DED040B00F07BF810F0030011D049
:1039F000012818D09DED021B9DED000B02281AD066
:103A000000F08AFA51EC100B00F002FF06B041EC16
:103A1000100B10BD9DED021B9DED000B012000F071
:103A2000AFFB06B010BD9DED021B9DED000B00F03D
:103A300073FA06B010BD012000F0A2FB51EC100B90
:103A400000F0E6FE06B041EC100B10BD00000000D7
:103A50000000000000000000FB21E93F0000F07FB3
:103A600000B52DED048BB0EE409AF0EE609A83B075
:103A700051EC190B01F044FB41EC180B18EE100A45
:103A800018EE901A8DED008B002818BF0120084316
:103A900020F00040C0F17F6000F1E040C00F14D082
:103AA00019EE101A19EE900A8DED009B002918BF2F
:103AB0000121084320F00040C0F17F6000F1E040A8
:103AC000C00F04BF0120FCF775FCB0EE480A03B03C
:103AD000F0EE680ABDEC048B00BD000000000000A1
:103AE0002DE9F14F04462DED020B2DED088B8AB028
:103AF0009FEDE70B80ED020B139EE74826F0004593
:103B000085420ADC9DED120B002084ED000B0AB00B
:103B1000BDEC088B03B0BDE8F08FE0489FEDE0AB53
:103B20009FEDE1BBA84247DDE14F9FEDE39B9FED99
:103B3000E48B9DED120B53EC1A2B51EC100B002E65
:103B40001CDD01F0A9FB41EC100BBD4208D053EC89
:103B50001B2B51EC100B01F09FFBC4E900010BE0A3
:103B600053EC192B51EC100B01F096FB53EC182B76
:103B700001F092FBC4E900010120C8E700F086FED5
:103B800041EC100BBD4208D053EC1B2B51EC100B39
:103B900000F07CFEC4E900010BE053EC192B51EC62
:103BA000100B00F073FE53EC182B00F06FFEC4E90D
:103BB00000014FF0FF30AAE7C348A84279DB9DED32
:103BC000120B51EC100B00F02BFC41EC180B9FED8D
:103BD000C00B53EC102B01F0E1F89FEDBF1B53EC31
:103BE000112B00F053FE01F051F8074601F0ABF83D
:103BF00041EC190B53EC1A2B01F0D0F853EC182BB5
:103C000001F072FA41EC180B53EC1B2B51EC190B21
:103C100001F0C4F8DFF8C8A241EC100B4FEA1558C8
:103C20000125FA4453EC102B51EC180B01F034FB36
:103C3000032DC4E900013DD0C1F30A5005EB451145
:103C4000A8EB00001139814234DA0AEB051BB0EE13
:103C500048AA9BED000BF0EE68AA53EC102B51EC38
:103C6000190B01F09BF841EC1B0B51EC1A0B53ECB8
:103C70001B2B01F011FB41EC180B51EC1A0B53EC10
:103C8000182B01F009FB53EC1B2B01F005FB9BEDFE
:103C9000020B41EC1A0B53EC102B51EC190B01F0F9
:103CA0007DF853EC1A2B01F0F7FA41EC100B6D1C68
:103CB000B8E70EE0002EA8BF3846BFF628AF94ED57
:103CC000000B51EC100B00F0A3FDC4E90001784299
:103CD0001DE7C6F3130040F4801EC6F30A50A0F29D
:103CE000F530471100F01F05C5F12000DDF848B0A0
:103CF00008900020069007900520EC467949002D99
:103D000007EB0002794408BF51F8221009D051F89E
:103D1000223001EB8201AB404A68089922FA01F196
:103D20001943A1FB0E26A1FB0B131A449A4234BF80
:103D30000123002303EB06080CEB8003D3E901A663
:103D40000E448E4234BF0121002192448A4411B1B5
:103D5000924502D903E0924501D2012100E0002101
:103D6000C3E901A641444CF82010011EA0F1010056
:103D7000C4DC029800F10050850F0298DDE903676A
:103D80008000DDF8148000F0DEFF41EC1A0B3046B5
:103D900000F0F0FF9FED541B53EC112B00F0FEFFE1
:103DA00041EC1B0B384600F0E5FF9FED511B53EC37
:103DB000112B00F0F3FF41EC180B404600F0DAFF46
:103DC0009FED4D1B53EC112B00F0E8FF41EC190B5C
:103DD00051EC180B53EC192B00F058FD53EC1B2B36
:103DE00000F054FD53EC1A2B00F050FDCDE9080112
:103DF000002008909DED080B53EC1A2B51EC100B92
:103E000001F04AFA53EC1B2B01F046FA53EC182B45
:103E100001F042FA53EC192B01F066F99FED381BC3
:103E200053EC112B00F0BAFF9FED370B41EC180B50
:103E300053EC102B9DED080B51EC100B00F0AEFF76
:103E400053EC182B00F022FD9FED310B41EC180BC9
:103E500053EC102B9DED080B51EC100B00F09EFF66
:103E600053EC182B00F012FD41EC100B139810F0DE
:103E7000004F06D06D4251EC100B00F0C9FC41EC34
:103E8000100B284684ED000B41E600000000000006
:103E90000000000000000000FB21E93F7CD9024047
:103EA00000004054FB21F93F3163621A61B4D03DF8
:103EB000FB21F93F000000000000601A61B4D03D12
:103EC0007370032E8A19A33BFB21394100000000C7
:103ED00083C8C96D305FE43F000000000000E03F90
:103EE000B28A0000008A0000000000000000103EBE
:103EF000000000000000103C000000000000103A2C
:103F0000182D4454FB21F93D3326A611460B113CD4
:103F100000000054FB21F93D10B52DED040B2DEDF3
:103F2000088B82B0B0EE419AF0EE619A0B9820F0C7
:103F300000449FED4BABB4F1795F11DA9DED0A0BB4
:103F400051EC100B00F0A2FE002801BFB0EE4A0AAF
:103F5000F0EE6A0A02B0BDEC088B04BF04B010BDDD
:103F60009DED0A0B53EC102B51EC100B00F016FFDB
:103F700041EC180B3C480621B0EE480AF0EE680A06
:103F8000784400F081F853EC182B51EC100B00F042
:103F900005FF9DED0A0B41EC1B0B53EC192B51EC6B
:103FA000100B00F0FBFE41EC190B53EC1B2B51ECFA
:103FB000180B00F0F3FE53EC192B01F06DF99FED97
:103FC0002C0B41EC190B53EC102B51EC180B00F09F
:103FD000E5FE41EC100B2848844210DA53EC192B13
:103FE00051EC100B01F058F953EC1A2B01F07CF84E
:103FF00041EC100B02B0BDEC088B04B010BD1F48A3
:10400000A042BCBF9FED1E1B8DED001B06DBA4F57F
:1040100000100190002000909DED001B51EC100B52
:1040200053EC112B01F038F99DED000B41EC180B0E
:1040300053EC102B51EC1A0B01F02EF941EC1A0B3A
:1040400053EC192B51EC180B01F026F953EC1A2BF9
:1040500001F04AF841EC100BCCE700000000000032
:10406000000000000000F03F1C870000000000007E
:10407000000000000000E03F3333D33F0000E93F81
:10408000000000000000D23F70B504462DED028B09
:104090004D1E00EBC500B0EE408AF0EE608A90ED58
:1040A000000B35F0060017D053EC182B51EC100B19
:1040B00000F074FE41EC100B6D1E04EBC50090ED9A
:1040C000001B51EC100B53EC112B00F0DFFB41EC0B
:1040D000100B35F00600E7D1022D36D0042D1CD090
:1040E000062D1CBFBDEC028B70BD53EC182B51ECA0
:1040F000100B00F053FE94ED0A1B53EC112B00F053
:10410000C5FB53EC182B00F049FE94ED081B53EC53
:10411000112B00F0BBFB41EC100B53EC182B51ECB6
:10412000100B00F03BFE94ED061B53EC112B00F03E
:10413000ADFB53EC182B00F031FE94ED040B53EC67
:10414000102B00F0A3FB41EC100B53EC182B51EC9F
:10415000100B00F023FE94ED021B53EC112B00F02A
:1041600095FB53EC182B00F019FE94ED001B53EC5B
:10417000112B00F08BFBBDEC028B41EC100B70BDE2
:1041800031B504462DED040B2DED0A8BB0EE41BA8E
:10419000F0EE61BA0B989DED0A0B20F00040B0F1F3
:1041A000795F0DDA51EC100BFFF7E4F8042808BF33
:1041B00000F0A2F89DED0A0BBDEC0A8B05B030BDF6
:1041C00053EC102B51EC100B00F0E8FD41EC180BF8
:1041D0009DED0A0B53EC182B51EC100B00F0DEFD9B
:1041E00041EC190B2C48B0EE480AF0EE680A0521A4
:1041F0007844FFF749FF9FED2ACBB0EE40AAF0EEDE
:1042000060AA9CB353EC1C2B51EC190B00F0C6FDBB
:1042100041EC1C0B53EC1A2B51EC190B00F0BEFDBA
:104220009FED210B41EC190B53EC102B51EC1B0BA8
:1042300000F0B4FD53EC192B01F02EF853EC182BC1
:1042400000F0ACFD53EC1B2B01F026F853EC1C2BBB
:1042500001F022F89DED0A1B53EC112B00F044FFF6
:10426000BDEC0A8B05B041EC100B30BDFFE753EC01
:104270001A2B51EC180B00F091FD53EC1C2B00F0A5
:1042800005FB53EC192B00F089FD9DED0A1B53EC47
:10429000112B00F0FBFAE3E7AC8500000000000002
:1042A000495555555555C5BF000000000000E03F79
:1042B00010B553EC102B51EC100B00F0E7FA41EC69
:1042C000100B10BD10B553EC112B51EC100B00F07E
:1042D000DDFA41EC100B10BD9FED050B10B553EC52
:1042E000102B51EC100B00F079FB41EC100B10BDC2
:1042F00000000000000000009FED050B10B553EC1E
:10430000102B51EC100B00F049FD41EC100B10BDCF
:10431000000000000000001070B505462DED068B72
:10432000B0EE418AF0EE608AB0EE409A38EE880A2C
:104330000C4610EE100A01F099F89FED151B53EC96
:10434000112B00F02BFD41EC1A0B19EE100A01F0B5
:104350008DF853EC1A2B00F09FFF9FED0F1B53ECD1
:10436000112B00F01BFD00F05FFA38EEC80A286040
:1043700010EE100A01F07AF89FED091B53EC112B97
:1043800000F00CFD00F050FA2060BDEC068B70BD13
:10439000000000000000E03F25EA59555555E53F73
:1043A000D7060FB5A679E23F10B541EC100BFFF729
:1043B0000BF851EC100B10BD10B510EE100A01F007
:1043C00055F89FED071B53EC112B00F0E7FC00F0B4
:1043D0005DFC054901EB800090ED000A10BD000076
:1043E00027367A90A9E78140A88D000800EE900A50
:1043F00010B5F8EE600A30EEC00A10EE100A01F0B7
:1044000035F89FED051B53EC112B00F0C7FC00F0B5
:104410000BFA00EE100A10BD0C93DC144AA1743F95
:1044200082B0CDE9000121F0004001909DED000B2C
:1044300002B051EC100B70470A8800EE902AB8EEDB
:10444000601A00EE900AF8EE600A00EE201AF7EE0D
:10445000000A70EE200A81EE200AFCEEC00A10EE7F
:10446000900A0880704700001CB5FDF797F8FEF72A
:10447000CFFCFEF723FA4D480024016841F4800187
:1044800001600068224600F4800000902146382038
:10449000FDF7E4F83820FDF7D3F8FEF717FBFEF739
:1044A000C5F9444900944248019408600846FCF765
:1044B00076FD08B172B6FEE70094002269463D48D9
:1044C0000194FCF749FD08B172B6FEE71022694677
:1044D0003848FCF741FD08B172B6FEE7FEF762FA14
:1044E000FEF7AEFA33480021A430FEF70DF931484B
:1044F0000021A430FDF7EEFB2E480421A430FEF786
:1045000003F92C480421A430FDF7E4FB29480821D5
:10451000A430FEF7F9F827480821A430FDF7DAFBAC
:1045200024484FF4C874A430006804642148A430BF
:10453000FDF7C4FC1F480C211430FEF7E5F81D48B8
:104540001430006804641B481430FDF7B7FC1948A8
:104550005C30FDF777FC174800215C30FDF756FE14
:10456000144804215C30FDF751FE124808215C30EC
:10457000FDF74CFE0F490322603901F11800FCF7EA
:1045800041FC08B172B6FEE700210A48FCF759FD6C
:1045900010210848FCF755FD074902200122C87088
:1045A00040210648FCF7E6FFFEE7000030380240F5
:1045B00000740040FC000020240000200010024095
:1045C00010B510EE100A00F051FF9FED071B53ECE1
:1045D000112B00F0E3FB00F059FB054901EB8000D3
:1045E00090ED000A10BD000027367A90A9E78140BF
:1045F0006455000870B57D4C2DED068B84B0E06DE0
:1046000000F034FF9FED7A9B53EC192B00F0E6F994
:1046100000F06CFB94ED030AD4ED040AC5B220EE61
:10462000000A00EEA00A10EE100A00F01FFF41EC95
:10463000100BFFF715FA51EC100B00F0F5F808EE2F
:10464000100A94ED100AB4EEC08AF1EE10FA01DD02
:10465000B0EE408A284600F08DFB53EC192B00F099
:104660009DFB41EC1A0BE06D00F000FF53EC1A2BA0
:1046700000F012FE00F0D8F8F3EE0E0A064688EEBF
:10468000200A10EE100A00F0F1FE9FED5B1B53ECC8
:10469000112B00F083FB00F0C7F80446304600F011
:1046A000E5FE53EC192B00F01FFD41EC100BFFF75A
:1046B00073F9B0EE408AF0EE608A204600F0D6FE34
:1046C00053EC182B00F06AFB9FED4D9B53EC192B1C
:1046D00000F064FB00F0A8F808EE900A304600F005
:1046E000C5FE41EC100BFFF757F9B0EE40AAF0EE13
:1046F00060AA204600F0BAFE53EC1A2B00F04EFBE5
:1047000053EC192B00F04AFB00F08EF808EE100A6B
:1047100018EE100A00F0AAFE41EC1A0B18EE900AEF
:1047200000F0A4FE53EC192B00F0DEFC53EC1A2B26
:1047300000F0B2FD00F078F800EE100AF6EE000A84
:10474000324960EE200A9FED300A062D20EE801AD5
:10475000BCEEC11A11EE100A30EEA81A70EE880AEB
:10476000ADF8000061EE001A60EE800AFCEEE11A7E
:10477000FCEEE00A11EE900AADF8080010EE900A87
:1047800071EE080AADF80C0020EE800ABCEEC00AFB
:1047900010EE100AADF8040024D2DFE805F003079C
:1047A0000D13171DC1F800D002A802E003A808608D
:1047B0006846486001A814E001A80860C1F804D068
:1047C00002A80EE001A8086003A802E002A80860A1
:1047D00001A84860684604E0C1F800D001A848601C
:1047E00003A8886004B0BDEC068B70BD24000020D7
:1047F000A038DB3752C1F03F6E5DFFE87AB6FB3F71
:104800002D431CEBE2360A3F0024744BA800002025
:1048100081F00041704780F00040704721F0004176
:10482000704720F00040704721F00042A2F1605232
:10483000B2F5801F01F0004328BFD2F17F6C0BD985
:104840005FEA001C43EAC20242EB507018BF704797
:1048500028BF20F001007047B2F5801FBCBF18468A
:1048600070474FEA410C1CF5001F02D2084600F0C9
:1048700073BE70B500F03CFB00000089FFF7F6BF87
:104880004FF00040A0F580007047000010B591EA9D
:10489000030F48BF83F0004300F10685841A71EBD3
:1048A000030C05D2121943EB0C03001B61EB0C0146
:1048B000DFF824E14FEA1154A4EB135C1EEA430F26
:1048C00018BF9EEA445F73D023EA0E03DCF1200E8A
:1048D00021EA045143F4801332D322FA0CFE10EB88
:1048E0000E0023FA0CFE41EB0E01CCF1200E03FA70
:1048F0000EFE10EB0E0051F10001B1F5801FCCF15E
:10490000200E32D201EB045112FA0EF2BDE8104033
:1049100058BF7047401C38BF5FEA420218BF70475B
:10492000002814BF20F0010041F100014FEA4103CB
:1049300013F5001F38BF7047A1F1C04100F0CEBB96
:10494000012A43EB0302ACF1200CDCF11F0E32BF55
:104950004FF0000E23FA0CF310EB030041EB04516F
:10496000B4EB115FD0D0A1EB045101F580114908DF
:104970005FEA300001EB04510ED350F1000038BF64
:1049800012FA0EFE08D1BDE81040C9E7401C38BF3E
:104990005FEA4202CAD1C3E7BDE810404FEA4103D3
:1049A00013F5001F38BF7047A1F1C04100F096BB5E
:1049B0009EEA445F08D011EA5E0FBDE8104004BFD4
:1049C00001F0004100207047BDE8104070B500F0D4
:1049D0008FFA00BF64FBBE3E0000E0FF2DE9C0413E
:1049E00030B4DFF8A0C23CEA111418BF3CEA13143B
:1049F00000F0EC8081EA03051CEA111444EAD57446
:104A000018BF1CEA131500F0C780A4EB05044FF093
:104A1000004545EAC12145EAC32341EA505143EA32
:104A2000525304F17F74994204F500344FEAC020D8
:104A30004FEAC22208BF904200F09C804FEA136503
:104A40000FF24016765D4FEA134506FB05F7C7F1F6
:104A5000807706FB07F74FEAD737A7FB0368764254
:104A6000C8F58038A7FB06CE38BFA8F1010807FBC0
:104A700008E64FF0000EA6FB028CE6FB03CEDCF14D
:104A8000000CCEF1004E38BFAEF1010EA6FB0C5863
:104A90004FF000074FF00005E6FB0E87A1FB08C6AC
:104AA000A0FB07CE16EB0E0645F10005E1FB0765FE
:104AB00015F1E04E7EBFA4F580345FEA46066D41F5
:104AC00016F1800745F100054FEA17274FEA066601
:104AD00047EA0567A6F1DE46B6F1805F4FEA152585
:104AE0001FD9384624F0010C05EBC471BCF1FE6FF0
:104AF00001EB0C1102D8F0BCBDE8008124425CBF80
:104B000001F5801E9EEAC47F02D4F0BCBDE800819E
:104B1000244238D4F0BCA1F1C041BDE8004100F00E
:104B2000DDBA4FEAD22242EA43524FEAD323A7FB2F
:104B300002864FEAD02040EA415007FB03661EEA96
:104B40000E0F4FEAD12105FB026658BFA6EB0056B7
:104B5000B6EB00564FEA520E4EEAC37E18EB0E0E2D
:104B600056EB530EBDD518EB02085E417F1C55F184
:104B70000005B6E74FF480154FF000074FF0000630
:104B80004FF00008ADE7F0BC4FF0000001F1C0416C
:104B900001F00041BDE8008111EA0C1F0CEA131579
:104BA00000D00CE013EA0C1F00F025804FF000004D
:104BB000F0BC81EA030101F00041BDE80081F0BCD6
:104BC000BDE8004181EA030100F088BAF0BCBDE80D
:104BD000004170B500F08CF9097EFC3E00F007B88A
:104BE00081EA03014FF0000001F00041704781EAC3
:104BF000030100F073BAF0BCBDE800414FF00000C3
:104C000021497047FFFDFBF9F7F5F4F2F0EEEDEB0B
:104C1000E9E8E6E4E3E1E0DEDDDBDAD8D7D5D4D3BA
:104C2000D1D0CFCDCCCBCAC8C7C6C5C4C2C1C0BF06
:104C3000BEBDBCBBBAB9B8B7B6B5B4B3B2B1B0AF0C
:104C4000AEADACABAAA9A8A8A7A6A5A4A3A3A2A1F0
:104C5000A09F9F9E9D9C9C9B9A99999897979695AB
:104C600095949393929191908F8F8E8E8D8C8C8B47
:104C70008B8A8989888887878685858484838382CF
:104C8000828181800000FF070000F87F4FEA410326
:104C90004FEA5353A3F58063D3F11E03C8BFD3F18A
:104CA000210C0CDD4FF0004242EAC12242EA505290
:104CB00032FA03FC8CEAE17CACEBE1707047102B1C
:104CC000C4BF0020704703F5787CBCF1FF3F04D0DF
:104CD0006FF0004282EA2100704770B500F008F9D9
:104CE0004992248000207047F2E700004FEA1153F8
:104CF000A3F58063D3F11E03A8BFD3F1200C08DB1A
:104D00004FF0004242EAC12252EA505232FA03F016
:104D1000704709420BD4102BC4BF0020704703F525
:104D2000787CBCF1FF3F05D04FF0FF3070474FF06B
:104D30000000704770B500F0DBF800BF4992248096
:104D400000207047F0E710F0004248BF4042B0FA40
:104D500080F310FA03F10AD0C3F11D0303F5806359
:104D60004FEA415002EB035202EBD12170474FF062
:104D700000007047B0FA80F310FA03F10AD0C3F1D3
:104D80001D0303F580634FEA41504FEA035202EBE3
:104D9000D12170474FF0000070470000DFF848C194
:104DA00070B51CEA111E1EBF1CEA13159EEA0C0FFB
:104DB00095EA0C0F00F06F8081EA030423EA4C139C
:104DC0004EEAD47E21EA4C1141F4801143F4801361
:104DD000AE44A1FB024CA0FB0365AEF17F7E361909
:104DE00055EB0C05A1FB034C4CF10003A0FB021C8E
:104DF00016EB0C06654153F10003094218BF46F05B
:104E0000010613F4007F0BD14FEA03314FEA05305E
:104E1000340341EA155140EA16506FF003020AE0EC
:104E20004FEAC3214FEAC520F40241EA555140EA56
:104E300056506FF0020202EB2E4201EB025585EA5A
:104E4000CE710AD05FEA440C18BF24F0004450F140
:104E5000000041F1000120EAD47040F2FE7C62457E
:104E600000D270BDA84214BF4FF080444FF04044C0
:104E7000002E08BF0024BEF1806FA8BFA1F1C04181
:104E8000BDE8704080F22A814FF0000001F1C0417E
:104E900001F0004170479EEA0C0F0CEA131518BF91
:104EA00095EA0C0F06D04FF0000081EA030E0EF0D9
:104EB000004170BD00F01CF88900013E00F007B809
:104EC00000F009B84FEA430C5FEA5C5C08D081EA65
:104ED000030100F003B94FEA410C5FEA5C5CF6D1D4
:104EE0004FF00000014970470000FF070000F87F05
:104EF0000EF1020E2EF0030E5EF8046B364205D45E
:104F0000012A43EB030515F5001F12D8012841EBD8
:104F1000010C1CF5001F0CD80ED14FEAD17C15F501
:104F2000001F0CEB4C0C0CF1020C08BF4CEBD37CBB
:104F300004E04FF0080C01E04FEAD37C0CEB4C0589
:104F400026FA05F606F00706B6F1040C06D20EEBBB
:104F5000860CBDE870404CF0010C6047DFE80CF0B7
:104F6000090B02024FF000414FF00000A1F50021B3
:104F700070BD19461046012851EB010418BFD4F545
:104F8000001484BF002001F0004170BDDFF844C16F
:104F900070B53CEA111418BF3CEA131500F08F807D
:104FA00011F1004F1CEA13150CEA111468BF45F00B
:104FB000050518BF11EA0C1F00F079802E4621EA82
:104FC0004C1123EA4C1341F4801143F48013A5F5EE
:104FD0008035AC423DDD801A9941A4F5803609D573
:104FE0004042C1F1000134BFB1F10101B1F1000152
:104FF00085F0010511F4F01F08D011F4801FE8D1ED
:10500000400041EB0101A4F58034F6E721F00041B6
:10501000B1FA81F6202E04BFB0FA80FE0EF1200610
:10502000A6F10B06B6F1200EA4EB06440CD2C6F195
:10503000200E01FA06F120FA0EF641EA0601CEF141
:10504000200600FA06F003E000FA0EF14FF000002F
:10505000BFE750EA410E23D04FEA244EBEEB254F66
:105060000FDB994208BF904204D00AD3520043EBB1
:105070000303B0E74FEA1646B6EB144F08BF85F0BE
:105080000105B4F5803401EB041181EAC57100DB40
:1050900070BD01F1C0414FF0000001F0004170BD52
:1050A0004FEA45714FF0000001F0004170BD1CEA6D
:1050B000131F09D04FF0000001F0004170BDFFF751
:1050C00017FF00BFEDFFFF3EBDE870404FF000004E
:1050D000014970470000FF070000F87F0808A0F5AD
:1050E00000114FEA3101704791EA030F10B581F0CA
:1050F00000413FF5D3AB83F0004300F0D5B800008A
:105100002DE9F04101F5801CBCF5001FC0F2A9801B
:105110004FEA115C21EA0C510CF1FD0C41F48011B5
:105120005FEA5C0C0CF5C07C01D34000494130A41F
:10513000890241EA905187028E0E0A0CA45D04FB9D
:1051400004F602FB06F6C6F14046A4FB0662F60D25
:1051500046EA422606FB06F4A4FB01235242C3F1B1
:10516000404338BF5B1EA6FB02420024E6FB03243B
:10517000D20B42EA4446A6FB0623A1FB02E2A3FBB4
:1051800007E4E3FB61426442C2F1404E38BFAEF136
:10519000010EA6FB04234FF00002E6FB0E32A2FB39
:1051A00003463400E2FB6264A1FB06E6A4FB07E8C9
:1051B000E4FB61687642C8F1405838BFA8F10108A5
:1051C000A2FB06E4A3FB08E5E2FB6854A1FB05E6AD
:1051D000A7FB04E8E1FB648618F1200556F1000600
:1051E000A809A8F11B08B10908F03F08B8F10A0F97
:1051F00040EA86601CD901EB0C51BDE8F08100BF8C
:10520000FCF5EEE8E2DDD8D3CFCBC7C3C0BDB9B65D
:10521000B4B1AEACA9A7A5A3A19F9D9B9A98969562
:105220009392908F8D8C8B898887868584838281E9
:10523000A0FB006800FB01F208EB4208B8EB8728EE
:1052400007D5341858EB0104D5D5401C51F10001A5
:10525000D1E7341A78EB0104CDD4401E71F100017E
:10526000C9E75FEA4C0C5FEA9C5C0DD105D34FF0B7
:10527000000001F00041BDE8F081BDE8F04170B5EB
:10528000FFF736FE6DDBFFBEBDE8F0414FF00000DA
:10529000004970470000F87F10B591EA030F48BF3E
:1052A00083F000433FF5FAAA841A71EB030C07D28E
:1052B00012198CF0004C43EB0C03001B61EB0C014A
:1052C000DFF8A4E14FEA1154A4EB135C1EEA430F8C
:1052D00018BF9EEA445F00F0B08023EA6E0352429A
:1052E00021EA0451C3EB6E0338BF5B1EDCF1200ED4
:1052F00025D322FA0CFE10EB0E0043FA0CFE41EB14
:105300000E01CCF1200E03FA0EFE10EB0E0051F14F
:105310000001CCF1200E29D412FA0EF201EB045157
:10532000BDE8104058BF7047401C1CBFB2F1004F91
:10533000704700280CBF491C20F00100704712EB99
:10534000020E43EB030218BF4FF0010E4EEA420279
:10535000ACF1200CDCF11E0E54D943FA0CFE10EB1C
:105360000E0051F1FF31CCF11E0ED5D50EF1010E1C
:1053700012FA0EFE404141EB010101EB445C5FEA91
:105380005C5C10D910EBDE7001EB045138BFBEF14C
:10539000004FBDE8104018BF704700280CBF491CE3
:1053A00020F00100704730D24FEAD42C11F50011E3
:1053B00024F400641BD0B1FA81F20B3AA41AA41EA3
:1053C000D2F12003914030FA03F31943904001EBEE
:1053D000CC71002C01EB0451BDE81040A8BF704710
:1053E00001F1C0414FF0000001F000417047B0FAF8
:1053F00080F310FA03F100D110BDE41A173C480500
:10540000C90AE4E701EB045110BD491001EB045156
:10541000BDE810404FEA300002E04FF00001704755
:105420004A0008BF0042F8D0B2F5001F28BF7047FD
:1054300001F000414FF0000070479EEA445F07D042
:1054400011EA5E0FBDE8104004BF00210020704744
:10545000BDE8104070B5FFF74BFD00BF40DFF63EE2
:1054600083F00041104670470000E0FF43004FEA20
:10547000D30C4FEA3C0C43401FBF40070CF1605176
:1054800013F0FE4F70471CF0006F03D100200CF0AA
:10549000004170470CF0004343EA507010B540EAF9
:1054A000CC0000F00EF800BF000000924FEA0001AF
:1054B000FFF714BE4FF000414FF00000A1F50021AE
:1054C00070470EF1020E2EF0030E5EF8044B2442DC
:1054D00004D44FEA4102B2F17F4F11D84FEA4003A2
:1054E000B3F17F4F0CD80ED14FEAD07CB2F17F4F91
:1054F0000CEB4C0C0CF1020C08BF4CEBD17C04E023
:105500004FF0080C01E04FEAD17C0CEB4C0324FA7D
:1055100003F404F00704B4F1040C06D20EEB840C7F
:10552000BDE810404CF0010C6047DFE80CF00708C4
:1055300002024FF00040A0F5800010BD0846420076
:1055400018BFD2F1807288BF00F0004010BD4FF04C
:105550004070E1EE100A7047FF2141EAD050C005CB
:10556000704700000000000089D2DE3A4260653BCF
:10557000C364AA3B4260E53B728A0E3C31082C3C76
:1055800082E2473C4260653C499D803C295C8F3CFF
:1055900052499D3C7A36AB3C5AF5B93C82E2C73C55
:1055A00062A1D63C8A8EE43C6A4DF33C499D003DA5
:1055B000B9FC073D4DF30E3DE2E9153D52491D3D55
:1055C000E63F243D569F2B3DEA95323D5AF5393D45
:1055D000EEEB403D82E2473DF2414F3D8638563D7D
:1055E000F6975D3D8A8E643DFAED6B3D8FE4723D2A
:1055F00023DB793D499D803D9318843D4BC8873D11
:1056000096438B3D4DF38E3D986E923DE2E9953D7C
:105610009A99993DE4149D3D9CC4A03DE63FA43D6C
:1056200030BBA73DE86AAB3D32E6AE3DEA95B23D00
:105630003411B63D7E8CB93D363CBD3D80B7C03D92
:10564000CA32C43D82E2C73DCC5DCB3D840DCF3D27
:10565000CE88D23D1904D63DD0B3D93D1B2FDD3DB8
:1056600065AAE03D1D5AE43D67D5E73DB150EB3DED
:105670006900EF3DB37BF23DFDF6F53DB5A6F93D82
:10568000FF21FD3DA54E003E8126023E26E4033E5D
:10569000CBA1053EA779073E4C37093EF1F40A3EFF
:1056A00096B20C3E728A0E3E1748103EBC05123E62
:1056B00098DD133E3D9B153EE258173E8716193E76
:1056C00063EE1A3E08AC1C3EAD691E3E5227203EDA
:1056D0002EFF213ED3BC233E787A253E1D38273E3F
:1056E000C3F5283E9FCD2A3E448B2C3EE9482E3EF2
:1056F0008E06303E33C4313E0F9C333EB459353EA6
:105700005917373EFED4383EA3923A3E7F6A3C3E5C
:1057100024283E3EC9E53F3E6EA3413E1361433E11
:10572000B81E453E5DDC463E029A483EDE714A3E6A
:10573000832F4C3E29ED4D3ECEAA4F3E7368513E1D
:105740001826533EBDE3543E62A1563E075F583EC5
:10575000AC1C5A3E51DA5B3EF6975D3E9B555F3E70
:105760004013613EE5D0623EC1A8643E6666663E77
:105770000B24683EB1E1693E1F856B3EC4426D3E1D
:1057800069006F3E0EBE703EB37B723E5839743E68
:10579000FDF6753EA2B4773E4772793EEC2F7B3E14
:1057A00091ED7C3E36AB7E3E6E34803E4013813EB2
:1057B00013F2813ECAC3823E9CA2833E6F81843E27
:1057C0004260853E143F863EE71D873EB9FC873E1A
:1057D00070CE883E43AD893E158C8A3EE86A8B3E8A
:1057E000BA498C3E711B8D3E44FA8D3E17D98E3ED0
:1057F000E9B78F3EA089903E7368913E4547923E3F
:105800001826933ECFF7933EA1D6943E74B5953EAD
:105810002B87963EFE65973ED044983E8716993E6C
:105820005AF5993E2CD49A3EE3A59B3EB6849C3E05
:1058300088639D3E3F359E3E12149F3EC9E59F3EC4
:105840009CC4A03E5396A13E2575A23EF853A33EAC
:10585000AF25A43E8104A53E39D6A53E0BB5A63E94
:10586000C286A73E9565A83E4C37A93E1E16AA3EA5
:10587000D5E7AA3EA8C6AB3E5F98AC3E166AAD3EE1
:10588000E948AE3EA01AAF3E72F9AF3E29CBB03E1A
:10589000E09CB13EB37BB23E6A4DB33E211FB43EA5
:1058A000F4FDB43EABCFB53E62A1B63E3480B73E08
:1058B000EC51B83EA323B93E7502BA3E2CD4BA3E91
:1058C000E3A5BB3E9A77BC3E5249BD3E2428BE3E6E
:1058D000DBF9BE3E92CBBF3E499DC03E006FC13E4C
:1058E000D34DC23E8A1FC33E41F1C33EF8C2C43EFF
:1058F000AF94C53E6666C63E1D38C73ED509C83E54
:105900008CDBC83E43ADC93EFA7ECA3EB150CB3EA9
:105910006822CC3E1FF4CC3ED6C5CD3E8D97CE3E00
:105920004469CF3EFB3AD03EB30CD13E6ADED13E55
:1059300021B0D23ED881D33E8F53D43E4625D53EAA
:10594000FDF6D53EB4C8D63E508DD73E075FD83E53
:10595000BE30D93E7502DA3E2CD4DA3EC898DB3E22
:105960007F6ADC3E363CDD3EED0DDE3E89D2DE3E1A
:1059700040A4DF3EF775E03E933AE13E4A0CE23E3A
:1059800001DEE23E9CA2E33E5474E43E0B46E53E5B
:10599000A60AE63E5DDCE63EF9A0E73EB072E83ED0
:1059A0004C37E93E0309EA3E9FCDEA3E569FEB3E67
:1059B000F163EC3EA835ED3E44FAED3EFBCBEE3E06
:1059C0009790EF3E4E62F03EE926F13EA1F8F13E9F
:1059D0003CBDF23ED881F33E8F53F43E2B18F53E8A
:1059E000C6DCF53E7DAEF63E1973F73EB537F83EA0
:1059F00050FCF83E07CEF93EA392FA3E3F57FB3EDD
:105A0000DA1BFC3E76E0FC3E2DB2FD3EC976FE3E42
:105A1000643BFF3E0000003F4E62003F9CC4003FDD
:105A2000E926013F3789013F85EB013FD34D023F16
:105A300021B0023F6F12033FBC74033F0AD7033FFC
:105A40005839043FA69B043FF4FD043F4260053FE4
:105A50008FC2053FDD24063F2B87063F79E9063FCD
:105A60003945073F87A7073FD509083F226C083F04
:105A700070CE083F302A093F7E8C093FCCEE093FAB
:105A80008C4A0A3FDAAC0A3F280F0B3FE86A0B3F0B
:105A900036CD0B3F832F0C3F448B0C3F91ED0C3FD9
:105AA00052490D3F9FAB0D3F5F070E3FAD690E3F63
:105AB0006DC50E3FBB270F3F7B830F3FC9E50F3FEF
:105AC0008941103FD7A3103F97FF103F575B113F0D
:105AD000A5BD113F6519123F2575123F73D7123FBF
